{
  "_format": "hh-sol-artifact-1",
  "contractName": "FPIS_contract",
  "sourceName": "contracts/FPIS_contract.sol",
  "abi": [
    {
      "inputs": [],
      "stateMutability": "nonpayable",
      "type": "constructor"
    },
    {
      "anonymous": false,
      "inputs": [
        {
          "indexed": false,
          "internalType": "string",
          "name": "id",
          "type": "string"
        },
        {
          "indexed": false,
          "internalType": "address",
          "name": "currentOwner",
          "type": "address"
        },
        {
          "indexed": false,
          "internalType": "string",
          "name": "productName",
          "type": "string"
        }
      ],
      "name": "Add",
      "type": "event"
    },
    {
      "anonymous": false,
      "inputs": [
        {
          "indexed": false,
          "internalType": "string",
          "name": "username",
          "type": "string"
        },
        {
          "indexed": false,
          "internalType": "string",
          "name": "email",
          "type": "string"
        },
        {
          "indexed": false,
          "internalType": "string",
          "name": "role",
          "type": "string"
        },
        {
          "indexed": false,
          "internalType": "address",
          "name": "userAdd",
          "type": "address"
        }
      ],
      "name": "AddUser",
      "type": "event"
    },
    {
      "anonymous": false,
      "inputs": [
        {
          "indexed": false,
          "internalType": "address",
          "name": "buyer",
          "type": "address"
        },
        {
          "indexed": false,
          "internalType": "address",
          "name": "owner",
          "type": "address"
        },
        {
          "indexed": false,
          "internalType": "string",
          "name": "id",
          "type": "string"
        },
        {
          "indexed": false,
          "internalType": "string",
          "name": "productName",
          "type": "string"
        }
      ],
      "name": "Sold",
      "type": "event"
    },
    {
      "inputs": [
        {
          "internalType": "string",
          "name": "_productName",
          "type": "string"
        },
        {
          "internalType": "uint256",
          "name": "_price",
          "type": "uint256"
        },
        {
          "internalType": "string",
          "name": "_id",
          "type": "string"
        },
        {
          "internalType": "string",
          "name": "_productImg",
          "type": "string"
        },
        {
          "internalType": "string",
          "name": "_qrImg",
          "type": "string"
        }
      ],
      "name": "addProduct",
      "outputs": [],
      "stateMutability": "nonpayable",
      "type": "function"
    },
    {
      "inputs": [
        {
          "internalType": "string",
          "name": "_username",
          "type": "string"
        },
        {
          "internalType": "string",
          "name": "_email",
          "type": "string"
        },
        {
          "internalType": "string",
          "name": "_role",
          "type": "string"
        }
      ],
      "name": "addUser",
      "outputs": [],
      "stateMutability": "nonpayable",
      "type": "function"
    },
    {
      "inputs": [
        {
          "internalType": "string",
          "name": "_id",
          "type": "string"
        }
      ],
      "name": "authenticateProduct",
      "outputs": [],
      "stateMutability": "nonpayable",
      "type": "function"
    },
    {
      "inputs": [],
      "name": "contractOwner",
      "outputs": [
        {
          "internalType": "address",
          "name": "",
          "type": "address"
        }
      ],
      "stateMutability": "view",
      "type": "function"
    },
    {
      "inputs": [
        {
          "internalType": "string",
          "name": "_id",
          "type": "string"
        }
      ],
      "name": "getProduct",
      "outputs": [
        {
          "internalType": "string",
          "name": "",
          "type": "string"
        },
        {
          "internalType": "string",
          "name": "",
          "type": "string"
        },
        {
          "internalType": "uint256",
          "name": "",
          "type": "uint256"
        },
        {
          "internalType": "string",
          "name": "",
          "type": "string"
        },
        {
          "internalType": "string",
          "name": "",
          "type": "string"
        },
        {
          "internalType": "address",
          "name": "",
          "type": "address"
        },
        {
          "components": [
            {
              "internalType": "string",
              "name": "username",
              "type": "string"
            },
            {
              "internalType": "string",
              "name": "email",
              "type": "string"
            },
            {
              "internalType": "enum FPIS_contract.Role",
              "name": "role",
              "type": "uint8"
            },
            {
              "internalType": "address",
              "name": "userAdd",
              "type": "address"
            }
          ],
          "internalType": "struct FPIS_contract.UserData[]",
          "name": "",
          "type": "tuple[]"
        },
        {
          "internalType": "bool",
          "name": "",
          "type": "bool"
        }
      ],
      "stateMutability": "view",
      "type": "function"
    },
    {
      "inputs": [],
      "name": "getUser",
      "outputs": [
        {
          "internalType": "string",
          "name": "",
          "type": "string"
        },
        {
          "internalType": "string",
          "name": "",
          "type": "string"
        },
        {
          "internalType": "string",
          "name": "",
          "type": "string"
        },
        {
          "internalType": "address",
          "name": "",
          "type": "address"
        }
      ],
      "stateMutability": "view",
      "type": "function"
    },
    {
      "inputs": [
        {
          "internalType": "string",
          "name": "",
          "type": "string"
        }
      ],
      "name": "products",
      "outputs": [
        {
          "internalType": "string",
          "name": "id",
          "type": "string"
        },
        {
          "internalType": "string",
          "name": "productName",
          "type": "string"
        },
        {
          "internalType": "uint256",
          "name": "price",
          "type": "uint256"
        },
        {
          "internalType": "string",
          "name": "productImg",
          "type": "string"
        },
        {
          "internalType": "string",
          "name": "qrImg",
          "type": "string"
        },
        {
          "internalType": "address",
          "name": "currentOwner",
          "type": "address"
        },
        {
          "internalType": "bool",
          "name": "authenticate",
          "type": "bool"
        }
      ],
      "stateMutability": "view",
      "type": "function"
    },
    {
      "inputs": [
        {
          "internalType": "string",
          "name": "_id",
          "type": "string"
        },
        {
          "internalType": "address",
          "name": "_newOwner",
          "type": "address"
        }
      ],
      "name": "updateOwner",
      "outputs": [],
      "stateMutability": "nonpayable",
      "type": "function"
    },
    {
      "inputs": [
        {
          "internalType": "address",
          "name": "",
          "type": "address"
        }
      ],
      "name": "users",
      "outputs": [
        {
          "internalType": "string",
          "name": "username",
          "type": "string"
        },
        {
          "internalType": "string",
          "name": "email",
          "type": "string"
        },
        {
          "internalType": "enum FPIS_contract.Role",
          "name": "role",
          "type": "uint8"
        },
        {
          "internalType": "address",
          "name": "userAdd",
          "type": "address"
        }
      ],
      "stateMutability": "view",
      "type": "function"
    }
  ],
  "bytecode": "0x60806040523480156200001157600080fd5b50336000806101000a81548173ffffffffffffffffffffffffffffffffffffffff021916908373ffffffffffffffffffffffffffffffffffffffff160217905550600060046040516200006490620001db565b908152602001604051809103902060006101000a81548160ff02191690836003811115620000975762000096620001f2565b5b021790555060016004604051620000ae9062000271565b908152602001604051809103902060006101000a81548160ff02191690836003811115620000e157620000e0620001f2565b5b021790555060026004604051620000f890620002d8565b908152602001604051809103902060006101000a81548160ff021916908360038111156200012b576200012a620001f2565b5b02179055506003600460405162000142906200033f565b908152602001604051809103902060006101000a81548160ff02191690836003811115620001755762000174620001f2565b5b021790555062000356565b600081905092915050565b7f496e76616c696400000000000000000000000000000000000000000000000000600082015250565b6000620001c360078362000180565b9150620001d0826200018b565b600782019050919050565b6000620001e882620001b4565b9150819050919050565b7f4e487b7100000000000000000000000000000000000000000000000000000000600052602160045260246000fd5b7f4d616e7566616374757265720000000000000000000000000000000000000000600082015250565b600062000259600c8362000180565b9150620002668262000221565b600c82019050919050565b60006200027e826200024a565b9150819050919050565b7f537570706c696572000000000000000000000000000000000000000000000000600082015250565b6000620002c060088362000180565b9150620002cd8262000288565b600882019050919050565b6000620002e582620002b1565b9150819050919050565b7f437573746f6d6572000000000000000000000000000000000000000000000000600082015250565b60006200032760088362000180565b91506200033482620002ef565b600882019050919050565b60006200034c8262000318565b9150819050919050565b61308080620003666000396000f3fe608060405234801561001057600080fd5b50600436106100935760003560e01c806395c5fed41161006657806395c5fed414610142578063a87430ba1461015e578063b81ba49714610191578063ce606ee0146101ad578063e39d22dc146101cb57610093565b80630186a4231461009857806302879f9c146100ce57806368111cce146100ea578063832880e714610121575b600080fd5b6100b260048036038101906100ad9190611d4e565b6101e7565b6040516100c59796959493929190611e8b565b60405180910390f35b6100e860048036038101906100e39190611f42565b61048c565b005b61010460048036038101906100ff9190611d4e565b61084e565b604051610118989796959493929190612229565b60405180910390f35b610129610df8565b60405161013994939291906122ca565b60405180910390f35b61015c60048036038101906101579190612324565b6110fb565b005b610178600480360381019061017391906123f7565b611580565b6040516101889493929190612433565b60405180910390f35b6101ab60048036038101906101a69190611d4e565b6116ed565b005b6101b56117c2565b6040516101c29190612486565b60405180910390f35b6101e560048036038101906101e091906124a1565b6117e6565b005b6001818051602081018201805184825260208301602085012081835280955050505050506000915090508060000180546102209061252c565b80601f016020809104026020016040519081016040528092919081815260200182805461024c9061252c565b80156102995780601f1061026e57610100808354040283529160200191610299565b820191906000526020600020905b81548152906001019060200180831161027c57829003601f168201915b5050505050908060010180546102ae9061252c565b80601f01602080910402602001604051908101604052809291908181526020018280546102da9061252c565b80156103275780601f106102fc57610100808354040283529160200191610327565b820191906000526020600020905b81548152906001019060200180831161030a57829003601f168201915b5050505050908060020154908060030180546103429061252c565b80601f016020809104026020016040519081016040528092919081815260200182805461036e9061252c565b80156103bb5780601f10610390576101008083540402835291602001916103bb565b820191906000526020600020905b81548152906001019060200180831161039e57829003601f168201915b5050505050908060040180546103d09061252c565b80601f01602080910402602001604051908101604052809291908181526020018280546103fc9061252c565b80156104495780601f1061041e57610100808354040283529160200191610449565b820191906000526020600020905b81548152906001019060200180831161042c57829003601f168201915b5050505050908060050160009054906101000a900473ffffffffffffffffffffffffffffffffffffffff16908060070160009054906101000a900460ff16905087565b600160038111156104a05761049f6120a3565b5b600260003373ffffffffffffffffffffffffffffffffffffffff1673ffffffffffffffffffffffffffffffffffffffff16815260200190815260200160002060020160009054906101000a900460ff166003811115610502576105016120a3565b5b14610542576040517f08c379a0000000000000000000000000000000000000000000000000000000008152600401610539906125cf565b60405180910390fd5b6000855111610586576040517f08c379a000000000000000000000000000000000000000000000000000000000815260040161057d9061263b565b60405180910390fd5b60008251116105ca576040517f08c379a00000000000000000000000000000000000000000000000000000000081526004016105c1906126a7565b60405180910390fd5b600081511161060e576040517f08c379a000000000000000000000000000000000000000000000000000000000815260040161060590612713565b60405180910390fd5b6060600167ffffffffffffffff81111561062b5761062a611c23565b5b6040519080825280602002602001820160405280156106595781602001602082028036833780820191505090505b509050338160008151811061067157610670612733565b5b602002602001019073ffffffffffffffffffffffffffffffffffffffff16908173ffffffffffffffffffffffffffffffffffffffff168152505060006040518061010001604052808681526020018881526020018781526020018581526020018481526020013373ffffffffffffffffffffffffffffffffffffffff16815260200183815260200160001515815250905080600186604051610713919061279e565b908152602001604051809103902060008201518160000190816107369190612961565b50602082015181600101908161074c9190612961565b5060408201518160020155606082015181600301908161076c9190612961565b5060808201518160040190816107829190612961565b5060a08201518160050160006101000a81548173ffffffffffffffffffffffffffffffffffffffff021916908373ffffffffffffffffffffffffffffffffffffffff16021790555060c08201518160060190805190602001906107e6929190611afd565b5060e08201518160070160006101000a81548160ff0219169083151502179055509050507f8eff215e19f9b36e7989a3b7311bdadf9f28be26dc3e745d730eb8d03fbded6e85338960405161083d93929190612a33565b60405180910390a150505050505050565b60608060006060806000606060008060018a60405161086d919061279e565b9081526020016040518091039020905060008160060180549050905060008167ffffffffffffffff8111156108a5576108a4611c23565b5b6040519080825280602002602001820160405280156108de57816020015b6108cb611b87565b8152602001906001900390816108c35790505b50905060005b82811015610b5c576002600085600601838154811061090657610905612733565b5b9060005260206000200160009054906101000a900473ffffffffffffffffffffffffffffffffffffffff1673ffffffffffffffffffffffffffffffffffffffff1673ffffffffffffffffffffffffffffffffffffffff1681526020019081526020016000206040518060800160405290816000820180546109869061252c565b80601f01602080910402602001604051908101604052809291908181526020018280546109b29061252c565b80156109ff5780601f106109d4576101008083540402835291602001916109ff565b820191906000526020600020905b8154815290600101906020018083116109e257829003601f168201915b50505050508152602001600182018054610a189061252c565b80601f0160208091040260200160405190810160405280929190818152602001828054610a449061252c565b8015610a915780601f10610a6657610100808354040283529160200191610a91565b820191906000526020600020905b815481529060010190602001808311610a7457829003601f168201915b505050505081526020016002820160009054906101000a900460ff166003811115610abf57610abe6120a3565b5b6003811115610ad157610ad06120a3565b5b81526020016002820160019054906101000a900473ffffffffffffffffffffffffffffffffffffffff1673ffffffffffffffffffffffffffffffffffffffff1673ffffffffffffffffffffffffffffffffffffffff1681525050828281518110610b3e57610b3d612733565b5b60200260200101819052508080610b5490612aa7565b9150506108e4565b508260000183600101846002015485600301866004018760050160009054906101000a900473ffffffffffffffffffffffffffffffffffffffff16868960070160009054906101000a900460ff16878054610bb69061252c565b80601f0160208091040260200160405190810160405280929190818152602001828054610be29061252c565b8015610c2f5780601f10610c0457610100808354040283529160200191610c2f565b820191906000526020600020905b815481529060010190602001808311610c1257829003601f168201915b50505050509750868054610c429061252c565b80601f0160208091040260200160405190810160405280929190818152602001828054610c6e9061252c565b8015610cbb5780601f10610c9057610100808354040283529160200191610cbb565b820191906000526020600020905b815481529060010190602001808311610c9e57829003601f168201915b50505050509650848054610cce9061252c565b80601f0160208091040260200160405190810160405280929190818152602001828054610cfa9061252c565b8015610d475780601f10610d1c57610100808354040283529160200191610d47565b820191906000526020600020905b815481529060010190602001808311610d2a57829003601f168201915b50505050509450838054610d5a9061252c565b80601f0160208091040260200160405190810160405280929190818152602001828054610d869061252c565b8015610dd35780601f10610da857610100808354040283529160200191610dd3565b820191906000526020600020905b815481529060010190602001808311610db657829003601f168201915b505050505093509a509a509a509a509a509a509a509a50505050919395975091939597565b606080606060008073ffffffffffffffffffffffffffffffffffffffff163373ffffffffffffffffffffffffffffffffffffffff1603610e6d576040517f08c379a0000000000000000000000000000000000000000000000000000000008152600401610e6490612b3b565b60405180910390fd5b600073ffffffffffffffffffffffffffffffffffffffff16600260003373ffffffffffffffffffffffffffffffffffffffff1673ffffffffffffffffffffffffffffffffffffffff16815260200190815260200160002060020160019054906101000a900473ffffffffffffffffffffffffffffffffffffffff1673ffffffffffffffffffffffffffffffffffffffff1603610f3e576040517f08c379a0000000000000000000000000000000000000000000000000000000008152600401610f3590612ba7565b60405180910390fd5b6000600260003373ffffffffffffffffffffffffffffffffffffffff1673ffffffffffffffffffffffffffffffffffffffff168152602001908152602001600020905060008160020160009054906101000a900460ff1690506000610fa282611987565b90508260000183600101828560020160019054906101000a900473ffffffffffffffffffffffffffffffffffffffff16838054610fde9061252c565b80601f016020809104026020016040519081016040528092919081815260200182805461100a9061252c565b80156110575780601f1061102c57610100808354040283529160200191611057565b820191906000526020600020905b81548152906001019060200180831161103a57829003601f168201915b5050505050935082805461106a9061252c565b80601f01602080910402602001604051908101604052809291908181526020018280546110969061252c565b80156110e35780601f106110b8576101008083540402835291602001916110e3565b820191906000526020600020905b8154815290600101906020018083116110c657829003601f168201915b50505050509250965096509650965050505090919293565b600073ffffffffffffffffffffffffffffffffffffffff16600260003373ffffffffffffffffffffffffffffffffffffffff1673ffffffffffffffffffffffffffffffffffffffff16815260200190815260200160002060020160019054906101000a900473ffffffffffffffffffffffffffffffffffffffff1673ffffffffffffffffffffffffffffffffffffffff16146111cc576040517f08c379a00000000000000000000000000000000000000000000000000000000081526004016111c390612c13565b60405180910390fd5b6000835111611210576040517f08c379a000000000000000000000000000000000000000000000000000000000815260040161120790612c7f565b60405180910390fd5b6000825111611254576040517f08c379a000000000000000000000000000000000000000000000000000000000815260040161124b90612ceb565b60405180910390fd5b600383604051611264919061279e565b908152602001604051809103902060009054906101000a900460ff16156112c0576040517f08c379a00000000000000000000000000000000000000000000000000000000081526004016112b790612d57565b60405180910390fd5b6000815111611304576040517f08c379a00000000000000000000000000000000000000000000000000000000081526004016112fb90612dc3565b60405180910390fd5b60006003811115611318576113176120a3565b5b600381111561132a576113296120a3565b5b60048260405161133a919061279e565b908152602001604051809103902060009054906101000a900460ff166003811115611368576113676120a3565b5b036113a8576040517f08c379a000000000000000000000000000000000000000000000000000000000815260040161139f90612e2f565b60405180910390fd5b60016003846040516113ba919061279e565b908152602001604051809103902060006101000a81548160ff02191690831515021790555060006040518060800160405280858152602001848152602001600484604051611408919061279e565b908152602001604051809103902060009054906101000a900460ff166003811115611436576114356120a3565b5b81526020013373ffffffffffffffffffffffffffffffffffffffff16815250905080600260003373ffffffffffffffffffffffffffffffffffffffff1673ffffffffffffffffffffffffffffffffffffffff16815260200190815260200160002060008201518160000190816114ac9190612961565b5060208201518160010190816114c29190612961565b5060408201518160020160006101000a81548160ff021916908360038111156114ee576114ed6120a3565b5b021790555060608201518160020160016101000a81548173ffffffffffffffffffffffffffffffffffffffff021916908373ffffffffffffffffffffffffffffffffffffffff1602179055509050507f8c64e2073f21f913f28dad0122a9855904c7b4c7fd2fc391a64c42f1b9f56a538484843360405161157294939291906122ca565b60405180910390a150505050565b60026020528060005260406000206000915090508060000180546115a39061252c565b80601f01602080910402602001604051908101604052809291908181526020018280546115cf9061252c565b801561161c5780601f106115f15761010080835404028352916020019161161c565b820191906000526020600020905b8154815290600101906020018083116115ff57829003601f168201915b5050505050908060010180546116319061252c565b80601f016020809104026020016040519081016040528092919081815260200182805461165d9061252c565b80156116aa5780601f1061167f576101008083540402835291602001916116aa565b820191906000526020600020905b81548152906001019060200180831161168d57829003601f168201915b5050505050908060020160009054906101000a900460ff16908060020160019054906101000a900473ffffffffffffffffffffffffffffffffffffffff16905084565b60006001826040516116ff919061279e565b908152602001604051809103902090503373ffffffffffffffffffffffffffffffffffffffff168160050160009054906101000a900473ffffffffffffffffffffffffffffffffffffffff1673ffffffffffffffffffffffffffffffffffffffff16146117a1576040517f08c379a000000000000000000000000000000000000000000000000000000000815260040161179890612ec1565b60405180910390fd5b60018160070160006101000a81548160ff0219169083151502179055505050565b60008054906101000a900473ffffffffffffffffffffffffffffffffffffffff1681565b60006001836040516117f8919061279e565b908152602001604051809103902090503373ffffffffffffffffffffffffffffffffffffffff168160050160009054906101000a900473ffffffffffffffffffffffffffffffffffffffff1673ffffffffffffffffffffffffffffffffffffffff161461189a576040517f08c379a000000000000000000000000000000000000000000000000000000000815260040161189190612f53565b60405180910390fd5b818160050160006101000a81548173ffffffffffffffffffffffffffffffffffffffff021916908373ffffffffffffffffffffffffffffffffffffffff16021790555080600601829080600181540180825580915050600190039060005260206000200160009091909190916101000a81548173ffffffffffffffffffffffffffffffffffffffff021916908373ffffffffffffffffffffffffffffffffffffffff1602179055507fb744d938787dfc2377ccdec0b41c14f9f7cecb60a319c6fbc6297cb4e64d801c8233858460010160405161197a9493929190612ff7565b60405180910390a1505050565b60606001600381111561199d5761199c6120a3565b5b8260038111156119b0576119af6120a3565b5b14611abf57600260038111156119c9576119c86120a3565b5b8260038111156119dc576119db6120a3565b5b14611a83576003808111156119f4576119f36120a3565b5b826003811115611a0757611a066120a3565b5b14611a47576040518060400160405280600c81526020017f496e76616c696420726f6c650000000000000000000000000000000000000000815250611a7e565b6040518060400160405280600881526020017f437573746f6d65720000000000000000000000000000000000000000000000008152505b611aba565b6040518060400160405280600881526020017f537570706c6965720000000000000000000000000000000000000000000000008152505b611af6565b6040518060400160405280600c81526020017f4d616e75666163747572657200000000000000000000000000000000000000008152505b9050919050565b828054828255906000526020600020908101928215611b76579160200282015b82811115611b755782518260006101000a81548173ffffffffffffffffffffffffffffffffffffffff021916908373ffffffffffffffffffffffffffffffffffffffff16021790555091602001919060010190611b1d565b5b509050611b839190611bd7565b5090565b6040518060800160405280606081526020016060815260200160006003811115611bb457611bb36120a3565b5b8152602001600073ffffffffffffffffffffffffffffffffffffffff1681525090565b5b80821115611bf0576000816000905550600101611bd8565b5090565b6000604051905090565b600080fd5b600080fd5b600080fd5b600080fd5b6000601f19601f8301169050919050565b7f4e487b7100000000000000000000000000000000000000000000000000000000600052604160045260246000fd5b611c5b82611c12565b810181811067ffffffffffffffff82111715611c7a57611c79611c23565b5b80604052505050565b6000611c8d611bf4565b9050611c998282611c52565b919050565b600067ffffffffffffffff821115611cb957611cb8611c23565b5b611cc282611c12565b9050602081019050919050565b82818337600083830152505050565b6000611cf1611cec84611c9e565b611c83565b905082815260208101848484011115611d0d57611d0c611c0d565b5b611d18848285611ccf565b509392505050565b600082601f830112611d3557611d34611c08565b5b8135611d45848260208601611cde565b91505092915050565b600060208284031215611d6457611d63611bfe565b5b600082013567ffffffffffffffff811115611d8257611d81611c03565b5b611d8e84828501611d20565b91505092915050565b600081519050919050565b600082825260208201905092915050565b60005b83811015611dd1578082015181840152602081019050611db6565b60008484015250505050565b6000611de882611d97565b611df28185611da2565b9350611e02818560208601611db3565b611e0b81611c12565b840191505092915050565b6000819050919050565b611e2981611e16565b82525050565b600073ffffffffffffffffffffffffffffffffffffffff82169050919050565b6000611e5a82611e2f565b9050919050565b611e6a81611e4f565b82525050565b60008115159050919050565b611e8581611e70565b82525050565b600060e0820190508181036000830152611ea5818a611ddd565b90508181036020830152611eb98189611ddd565b9050611ec86040830188611e20565b8181036060830152611eda8187611ddd565b90508181036080830152611eee8186611ddd565b9050611efd60a0830185611e61565b611f0a60c0830184611e7c565b98975050505050505050565b611f1f81611e16565b8114611f2a57600080fd5b50565b600081359050611f3c81611f16565b92915050565b600080600080600060a08688031215611f5e57611f5d611bfe565b5b600086013567ffffffffffffffff811115611f7c57611f7b611c03565b5b611f8888828901611d20565b9550506020611f9988828901611f2d565b945050604086013567ffffffffffffffff811115611fba57611fb9611c03565b5b611fc688828901611d20565b935050606086013567ffffffffffffffff811115611fe757611fe6611c03565b5b611ff388828901611d20565b925050608086013567ffffffffffffffff81111561201457612013611c03565b5b61202088828901611d20565b9150509295509295909350565b600081519050919050565b600082825260208201905092915050565b6000819050602082019050919050565b600082825260208201905092915050565b600061207582611d97565b61207f8185612059565b935061208f818560208601611db3565b61209881611c12565b840191505092915050565b7f4e487b7100000000000000000000000000000000000000000000000000000000600052602160045260246000fd5b600481106120e3576120e26120a3565b5b50565b60008190506120f4826120d2565b919050565b6000612104826120e6565b9050919050565b612114816120f9565b82525050565b61212381611e4f565b82525050565b60006080830160008301518482036000860152612146828261206a565b91505060208301518482036020860152612160828261206a565b9150506040830151612175604086018261210b565b506060830151612188606086018261211a565b508091505092915050565b600061219f8383612129565b905092915050565b6000602082019050919050565b60006121bf8261202d565b6121c98185612038565b9350836020820285016121db85612049565b8060005b8581101561221757848403895281516121f88582612193565b9450612203836121a7565b925060208a019950506001810190506121df565b50829750879550505050505092915050565b6000610100820190508181036000830152612244818b611ddd565b90508181036020830152612258818a611ddd565b90506122676040830189611e20565b81810360608301526122798188611ddd565b9050818103608083015261228d8187611ddd565b905061229c60a0830186611e61565b81810360c08301526122ae81856121b4565b90506122bd60e0830184611e7c565b9998505050505050505050565b600060808201905081810360008301526122e48187611ddd565b905081810360208301526122f88186611ddd565b9050818103604083015261230c8185611ddd565b905061231b6060830184611e61565b95945050505050565b60008060006060848603121561233d5761233c611bfe565b5b600084013567ffffffffffffffff81111561235b5761235a611c03565b5b61236786828701611d20565b935050602084013567ffffffffffffffff81111561238857612387611c03565b5b61239486828701611d20565b925050604084013567ffffffffffffffff8111156123b5576123b4611c03565b5b6123c186828701611d20565b9150509250925092565b6123d481611e4f565b81146123df57600080fd5b50565b6000813590506123f1816123cb565b92915050565b60006020828403121561240d5761240c611bfe565b5b600061241b848285016123e2565b91505092915050565b61242d816120f9565b82525050565b6000608082019050818103600083015261244d8187611ddd565b905081810360208301526124618186611ddd565b90506124706040830185612424565b61247d6060830184611e61565b95945050505050565b600060208201905061249b6000830184611e61565b92915050565b600080604083850312156124b8576124b7611bfe565b5b600083013567ffffffffffffffff8111156124d6576124d5611c03565b5b6124e285828601611d20565b92505060206124f3858286016123e2565b9150509250929050565b7f4e487b7100000000000000000000000000000000000000000000000000000000600052602260045260246000fd5b6000600282049050600182168061254457607f821691505b602082108103612557576125566124fd565b5b50919050565b7f4f6e6c79206d616e756661637475726572732063616e206164642070726f647560008201527f637420746f20626c6f636b636861696e00000000000000000000000000000000602082015250565b60006125b9603083611da2565b91506125c48261255d565b604082019050919050565b600060208201905081810360008301526125e8816125ac565b9050919050565b7f50726f647563746e616d652063616e6e6f7420626520656d7074790000000000600082015250565b6000612625601b83611da2565b9150612630826125ef565b602082019050919050565b6000602082019050818103600083015261265481612618565b9050919050565b7f50726f6475637420696d6167652063616e6e6f7420626520656d707479000000600082015250565b6000612691601d83611da2565b915061269c8261265b565b602082019050919050565b600060208201905081810360008301526126c081612684565b9050919050565b7f5172636f64652063616e6e6f7420626520656d70747900000000000000000000600082015250565b60006126fd601683611da2565b9150612708826126c7565b602082019050919050565b6000602082019050818103600083015261272c816126f0565b9050919050565b7f4e487b7100000000000000000000000000000000000000000000000000000000600052603260045260246000fd5b600081905092915050565b600061277882611d97565b6127828185612762565b9350612792818560208601611db3565b80840191505092915050565b60006127aa828461276d565b915081905092915050565b60008190508160005260206000209050919050565b60006020601f8301049050919050565b600082821b905092915050565b6000600883026128177fffffffffffffffffffffffffffffffffffffffffffffffffffffffffffffffff826127da565b61282186836127da565b95508019841693508086168417925050509392505050565b6000819050919050565b600061285e61285961285484611e16565b612839565b611e16565b9050919050565b6000819050919050565b61287883612843565b61288c61288482612865565b8484546127e7565b825550505050565b600090565b6128a1612894565b6128ac81848461286f565b505050565b5b818110156128d0576128c5600082612899565b6001810190506128b2565b5050565b601f821115612915576128e6816127b5565b6128ef846127ca565b810160208510156128fe578190505b61291261290a856127ca565b8301826128b1565b50505b505050565b600082821c905092915050565b60006129386000198460080261291a565b1980831691505092915050565b60006129518383612927565b9150826002028217905092915050565b61296a82611d97565b67ffffffffffffffff81111561298357612982611c23565b5b61298d825461252c565b6129988282856128d4565b600060209050601f8311600181146129cb57600084156129b9578287015190505b6129c38582612945565b865550612a2b565b601f1984166129d9866127b5565b60005b82811015612a01578489015182556001820191506020850194506020810190506129dc565b86831015612a1e5784890151612a1a601f891682612927565b8355505b6001600288020188555050505b505050505050565b60006060820190508181036000830152612a4d8186611ddd565b9050612a5c6020830185611e61565b8181036040830152612a6e8184611ddd565b9050949350505050565b7f4e487b7100000000000000000000000000000000000000000000000000000000600052601160045260246000fd5b6000612ab282611e16565b91507fffffffffffffffffffffffffffffffffffffffffffffffffffffffffffffffff8203612ae457612ae3612a78565b5b600182019050919050565b7f496e76616c696420757365722061646472657373000000000000000000000000600082015250565b6000612b25601483611da2565b9150612b3082612aef565b602082019050919050565b60006020820190508181036000830152612b5481612b18565b9050919050565b7f55736572206973206e6f74207265676973746572656400000000000000000000600082015250565b6000612b91601683611da2565b9150612b9c82612b5b565b602082019050919050565b60006020820190508181036000830152612bc081612b84565b9050919050565b7f5573657220616c72656164792065786973747300000000000000000000000000600082015250565b6000612bfd601383611da2565b9150612c0882612bc7565b602082019050919050565b60006020820190508181036000830152612c2c81612bf0565b9050919050565b7f557365726e616d652063616e6e6f7420626520656d7074790000000000000000600082015250565b6000612c69601883611da2565b9150612c7482612c33565b602082019050919050565b60006020820190508181036000830152612c9881612c5c565b9050919050565b7f456d61696c2063616e6e6f7420626520656d7074790000000000000000000000600082015250565b6000612cd5601583611da2565b9150612ce082612c9f565b602082019050919050565b60006020820190508181036000830152612d0481612cc8565b9050919050565b7f557365726e616d6520697320616c72656164792074616b656e00000000000000600082015250565b6000612d41601983611da2565b9150612d4c82612d0b565b602082019050919050565b60006020820190508181036000830152612d7081612d34565b9050919050565b7f526f6c652063616e6e6f7420626520656d707479000000000000000000000000600082015250565b6000612dad601483611da2565b9150612db882612d77565b602082019050919050565b60006020820190508181036000830152612ddc81612da0565b9050919050565b7f496e76616c696420726f6c650000000000000000000000000000000000000000600082015250565b6000612e19600c83611da2565b9150612e2482612de3565b602082019050919050565b60006020820190508181036000830152612e4881612e0c565b9050919050565b7f4f6e6c79207468652063757272656e74206f776e65722063616e20617574686560008201527f6e746963617465207468652070726f6475637400000000000000000000000000602082015250565b6000612eab603383611da2565b9150612eb682612e4f565b604082019050919050565b60006020820190508181036000830152612eda81612e9e565b9050919050565b7f4f6e6c79207468652063757272656e74206f776e65722063616e20757064617460008201527f65207468652070726f6475637420646174610000000000000000000000000000602082015250565b6000612f3d603283611da2565b9150612f4882612ee1565b604082019050919050565b60006020820190508181036000830152612f6c81612f30565b9050919050565b60008154612f808161252c565b612f8a8186611da2565b94506001821660008114612fa55760018114612fbb57612fee565b60ff198316865281151560200286019350612fee565b612fc4856127b5565b60005b83811015612fe657815481890152600182019150602081019050612fc7565b808801955050505b50505092915050565b600060808201905061300c6000830187611e61565b6130196020830186611e61565b818103604083015261302b8185611ddd565b9050818103606083015261303f8184612f73565b90509594505050505056fea2646970667358221220fe505d0cfbfcec9d08a46edaecf65e63ecff8e806a24efa1598ac4b51fba130c64736f6c63430008110033",
  "linkReferences": {},
  "deployedLinkReferences": {}
}